{
  "_format": "hh-sol-artifact-1",
  "contractName": "BuyMeACoffee",
  "sourceName": "contracts/BuyMeACoffee.sol",
  "abi": [
    {
      "inputs": [],
      "stateMutability": "nonpayable",
      "type": "constructor"
    },
    {
      "anonymous": false,
      "inputs": [
        {
          "indexed": true,
          "internalType": "address",
          "name": "from",
          "type": "address"
        },
        {
          "indexed": false,
          "internalType": "uint256",
          "name": "timestamp",
          "type": "uint256"
        },
        {
          "indexed": false,
          "internalType": "string",
          "name": "name",
          "type": "string"
        },
        {
          "indexed": false,
          "internalType": "string",
          "name": "message",
          "type": "string"
        },
        {
          "indexed": false,
          "internalType": "uint256",
          "name": "tipAmount",
          "type": "uint256"
        }
      ],
      "name": "NewMemory",
      "type": "event"
    },
    {
      "inputs": [
        {
          "internalType": "string",
          "name": "_name",
          "type": "string"
        },
        {
          "internalType": "string",
          "name": "_message",
          "type": "string"
        }
      ],
      "name": "buyCoffee",
      "outputs": [],
      "stateMutability": "payable",
      "type": "function"
    },
    {
      "inputs": [
        {
          "internalType": "string",
          "name": "_name",
          "type": "string"
        },
        {
          "internalType": "string",
          "name": "_message",
          "type": "string"
        }
      ],
      "name": "buyLargeCoffee",
      "outputs": [],
      "stateMutability": "payable",
      "type": "function"
    },
    {
      "inputs": [],
      "name": "getAllMemos",
      "outputs": [
        {
          "components": [
            {
              "internalType": "address",
              "name": "from",
              "type": "address"
            },
            {
              "internalType": "uint256",
              "name": "timestamp",
              "type": "uint256"
            },
            {
              "internalType": "string",
              "name": "name",
              "type": "string"
            },
            {
              "internalType": "string",
              "name": "message",
              "type": "string"
            },
            {
              "internalType": "uint256",
              "name": "tipAmount",
              "type": "uint256"
            }
          ],
          "internalType": "struct BuyMeACoffee.Memory[]",
          "name": "",
          "type": "tuple[]"
        }
      ],
      "stateMutability": "view",
      "type": "function"
    },
    {
      "inputs": [
        {
          "internalType": "uint256",
          "name": "index",
          "type": "uint256"
        }
      ],
      "name": "getMemoByIndex",
      "outputs": [
        {
          "internalType": "address",
          "name": "from",
          "type": "address"
        },
        {
          "internalType": "uint256",
          "name": "timestamp",
          "type": "uint256"
        },
        {
          "internalType": "string",
          "name": "name",
          "type": "string"
        },
        {
          "internalType": "string",
          "name": "message",
          "type": "string"
        },
        {
          "internalType": "uint256",
          "name": "tipAmount",
          "type": "uint256"
        }
      ],
      "stateMutability": "view",
      "type": "function"
    },
    {
      "inputs": [],
      "name": "getMemoCount",
      "outputs": [
        {
          "internalType": "uint256",
          "name": "",
          "type": "uint256"
        }
      ],
      "stateMutability": "view",
      "type": "function"
    },
    {
      "inputs": [
        {
          "internalType": "uint256",
          "name": "startIndex",
          "type": "uint256"
        },
        {
          "internalType": "uint256",
          "name": "endIndex",
          "type": "uint256"
        }
      ],
      "name": "getMemosPaginated",
      "outputs": [
        {
          "components": [
            {
              "internalType": "address",
              "name": "from",
              "type": "address"
            },
            {
              "internalType": "uint256",
              "name": "timestamp",
              "type": "uint256"
            },
            {
              "internalType": "string",
              "name": "name",
              "type": "string"
            },
            {
              "internalType": "string",
              "name": "message",
              "type": "string"
            },
            {
              "internalType": "uint256",
              "name": "tipAmount",
              "type": "uint256"
            }
          ],
          "internalType": "struct BuyMeACoffee.Memory[]",
          "name": "",
          "type": "tuple[]"
        }
      ],
      "stateMutability": "view",
      "type": "function"
    },
    {
      "inputs": [],
      "name": "owner",
      "outputs": [
        {
          "internalType": "address payable",
          "name": "",
          "type": "address"
        }
      ],
      "stateMutability": "view",
      "type": "function"
    },
    {
      "inputs": [
        {
          "internalType": "address payable",
          "name": "_newOwner",
          "type": "address"
        }
      ],
      "name": "updateWithdrawalAddress",
      "outputs": [],
      "stateMutability": "nonpayable",
      "type": "function"
    },
    {
      "inputs": [],
      "name": "withdrawFunds",
      "outputs": [],
      "stateMutability": "nonpayable",
      "type": "function"
    }
  ],
  "bytecode": "0x608060405234801561001057600080fd5b5033600160006101000a81548173ffffffffffffffffffffffffffffffffffffffff021916908373ffffffffffffffffffffffffffffffffffffffff160217905550611c67806100616000396000f3fe6080604052600436106100865760003560e01c80635e72fc5d116100595780635e72fc5d14610105578063875287c61461012e5780638da5cb5b1461016b57806397702c8814610196578063f4809f09146101c157610086565b8063204206e11461008b57806324600fc3146100a7578063417f9ea9146100be5780635a681c54146100da575b600080fd5b6100a560048036038101906100a09190610fc8565b610202565b005b3480156100b357600080fd5b506100bc61038e565b005b6100d860048036038101906100d39190610fc8565b6104b6565b005b3480156100e657600080fd5b506100ef610649565b6040516100fc9190611258565b60405180910390f35b34801561011157600080fd5b5061012c600480360381019061012791906112b8565b610836565b005b34801561013a57600080fd5b5061015560048036038101906101509190611311565b61090a565b6040516101629190611258565b60405180910390f35b34801561017757600080fd5b50610180610c21565b60405161018d9190611360565b60405180910390f35b3480156101a257600080fd5b506101ab610c47565b6040516101b8919061138a565b60405180910390f35b3480156101cd57600080fd5b506101e860048036038101906101e391906113a5565b610c53565b6040516101f995949392919061142b565b60405180910390f35b60003411610245576040517f08c379a000000000000000000000000000000000000000000000000000000000815260040161023c906114d8565b60405180910390fd5b60006040518060a001604052803373ffffffffffffffffffffffffffffffffffffffff16815260200142815260200184815260200183815260200134815250908060018154018082558091505060019003906000526020600020906005020160009091909190915060008201518160000160006101000a81548173ffffffffffffffffffffffffffffffffffffffff021916908373ffffffffffffffffffffffffffffffffffffffff1602179055506020820151816001015560408201518160020190816103139190611704565b5060608201518160030190816103299190611704565b506080820151816004015550503373ffffffffffffffffffffffffffffffffffffffff167f6ef20d5c1d3c34a1689090674e8b72b864c332fd69a40c298fac780e3184f55f4284843460405161038294939291906117d6565b60405180910390a25050565b600160009054906101000a900473ffffffffffffffffffffffffffffffffffffffff1673ffffffffffffffffffffffffffffffffffffffff163373ffffffffffffffffffffffffffffffffffffffff161461041e576040517f08c379a00000000000000000000000000000000000000000000000000000000081526004016104159061189b565b60405180910390fd5b600160009054906101000a900473ffffffffffffffffffffffffffffffffffffffff1673ffffffffffffffffffffffffffffffffffffffff166108fc479081150290604051600060405180830381858888f193505050506104b4576040517f08c379a00000000000000000000000000000000000000000000000000000000081526004016104ab90611907565b60405180910390fd5b565b660aa87bee538000341015610500576040517f08c379a00000000000000000000000000000000000000000000000000000000081526004016104f790611999565b60405180910390fd5b60006040518060a001604052803373ffffffffffffffffffffffffffffffffffffffff16815260200142815260200184815260200183815260200134815250908060018154018082558091505060019003906000526020600020906005020160009091909190915060008201518160000160006101000a81548173ffffffffffffffffffffffffffffffffffffffff021916908373ffffffffffffffffffffffffffffffffffffffff1602179055506020820151816001015560408201518160020190816105ce9190611704565b5060608201518160030190816105e49190611704565b506080820151816004015550503373ffffffffffffffffffffffffffffffffffffffff167f6ef20d5c1d3c34a1689090674e8b72b864c332fd69a40c298fac780e3184f55f4284843460405161063d94939291906117d6565b60405180910390a25050565b60606000805480602002602001604051908101604052809291908181526020016000905b8282101561082d57838290600052602060002090600502016040518060a00160405290816000820160009054906101000a900473ffffffffffffffffffffffffffffffffffffffff1673ffffffffffffffffffffffffffffffffffffffff1673ffffffffffffffffffffffffffffffffffffffff1681526020016001820154815260200160028201805461070090611527565b80601f016020809104026020016040519081016040528092919081815260200182805461072c90611527565b80156107795780601f1061074e57610100808354040283529160200191610779565b820191906000526020600020905b81548152906001019060200180831161075c57829003601f168201915b5050505050815260200160038201805461079290611527565b80601f01602080910402602001604051908101604052809291908181526020018280546107be90611527565b801561080b5780601f106107e05761010080835404028352916020019161080b565b820191906000526020600020905b8154815290600101906020018083116107ee57829003601f168201915b505050505081526020016004820154815250508152602001906001019061066d565b50505050905090565b600160009054906101000a900473ffffffffffffffffffffffffffffffffffffffff1673ffffffffffffffffffffffffffffffffffffffff163373ffffffffffffffffffffffffffffffffffffffff16146108c6576040517f08c379a00000000000000000000000000000000000000000000000000000000081526004016108bd90611a2b565b60405180910390fd5b80600160006101000a81548173ffffffffffffffffffffffffffffffffffffffff021916908373ffffffffffffffffffffffffffffffffffffffff16021790555050565b60606000831015801561091d5750828210155b61095c576040517f08c379a000000000000000000000000000000000000000000000000000000000815260040161095390611a97565b60405180910390fd5b60008054905082106109a3576040517f08c379a000000000000000000000000000000000000000000000000000000000815260040161099a90611b03565b60405180910390fd5b6000600184846109b39190611b52565b6109bd9190611b86565b67ffffffffffffffff8111156109d6576109d5610e9d565b5b604051908082528060200260200182016040528015610a0f57816020015b6109fc610e29565b8152602001906001900390816109f45790505b50905060008490505b838111610c165760008181548110610a3357610a32611bba565b5b90600052602060002090600502016040518060a00160405290816000820160009054906101000a900473ffffffffffffffffffffffffffffffffffffffff1673ffffffffffffffffffffffffffffffffffffffff1673ffffffffffffffffffffffffffffffffffffffff16815260200160018201548152602001600282018054610abc90611527565b80601f0160208091040260200160405190810160405280929190818152602001828054610ae890611527565b8015610b355780601f10610b0a57610100808354040283529160200191610b35565b820191906000526020600020905b815481529060010190602001808311610b1857829003601f168201915b50505050508152602001600382018054610b4e90611527565b80601f0160208091040260200160405190810160405280929190818152602001828054610b7a90611527565b8015610bc75780601f10610b9c57610100808354040283529160200191610bc7565b820191906000526020600020905b815481529060010190602001808311610baa57829003601f168201915b50505050508152602001600482015481525050828683610be79190611b52565b81518110610bf857610bf7611bba565b5b60200260200101819052508080610c0e90611be9565b915050610a18565b508091505092915050565b600160009054906101000a900473ffffffffffffffffffffffffffffffffffffffff1681565b60008080549050905090565b600080606080600080805490508610610ca1576040517f08c379a0000000000000000000000000000000000000000000000000000000008152600401610c9890611b03565b60405180910390fd5b6000808781548110610cb657610cb5611bba565b5b906000526020600020906005020190508060000160009054906101000a900473ffffffffffffffffffffffffffffffffffffffff16816001015482600201836003018460040154828054610d0990611527565b80601f0160208091040260200160405190810160405280929190818152602001828054610d3590611527565b8015610d825780601f10610d5757610100808354040283529160200191610d82565b820191906000526020600020905b815481529060010190602001808311610d6557829003601f168201915b50505050509250818054610d9590611527565b80601f0160208091040260200160405190810160405280929190818152602001828054610dc190611527565b8015610e0e5780601f10610de357610100808354040283529160200191610e0e565b820191906000526020600020905b815481529060010190602001808311610df157829003601f168201915b50505050509150955095509550955095505091939590929450565b6040518060a00160405280600073ffffffffffffffffffffffffffffffffffffffff168152602001600081526020016060815260200160608152602001600081525090565b6000604051905090565b600080fd5b600080fd5b600080fd5b600080fd5b6000601f19601f8301169050919050565b7f4e487b7100000000000000000000000000000000000000000000000000000000600052604160045260246000fd5b610ed582610e8c565b810181811067ffffffffffffffff82111715610ef457610ef3610e9d565b5b80604052505050565b6000610f07610e6e565b9050610f138282610ecc565b919050565b600067ffffffffffffffff821115610f3357610f32610e9d565b5b610f3c82610e8c565b9050602081019050919050565b82818337600083830152505050565b6000610f6b610f6684610f18565b610efd565b905082815260208101848484011115610f8757610f86610e87565b5b610f92848285610f49565b509392505050565b600082601f830112610faf57610fae610e82565b5b8135610fbf848260208601610f58565b91505092915050565b60008060408385031215610fdf57610fde610e78565b5b600083013567ffffffffffffffff811115610ffd57610ffc610e7d565b5b61100985828601610f9a565b925050602083013567ffffffffffffffff81111561102a57611029610e7d565b5b61103685828601610f9a565b9150509250929050565b600081519050919050565b600082825260208201905092915050565b6000819050602082019050919050565b600073ffffffffffffffffffffffffffffffffffffffff82169050919050565b60006110978261106c565b9050919050565b6110a78161108c565b82525050565b6000819050919050565b6110c0816110ad565b82525050565b600081519050919050565b600082825260208201905092915050565b60005b838110156111005780820151818401526020810190506110e5565b60008484015250505050565b6000611117826110c6565b61112181856110d1565b93506111318185602086016110e2565b61113a81610e8c565b840191505092915050565b600060a08301600083015161115d600086018261109e565b50602083015161117060208601826110b7565b5060408301518482036040860152611188828261110c565b915050606083015184820360608601526111a2828261110c565b91505060808301516111b760808601826110b7565b508091505092915050565b60006111ce8383611145565b905092915050565b6000602082019050919050565b60006111ee82611040565b6111f8818561104b565b93508360208202850161120a8561105c565b8060005b85811015611246578484038952815161122785826111c2565b9450611232836111d6565b925060208a0199505060018101905061120e565b50829750879550505050505092915050565b6000602082019050818103600083015261127281846111e3565b905092915050565b60006112858261106c565b9050919050565b6112958161127a565b81146112a057600080fd5b50565b6000813590506112b28161128c565b92915050565b6000602082840312156112ce576112cd610e78565b5b60006112dc848285016112a3565b91505092915050565b6112ee816110ad565b81146112f957600080fd5b50565b60008135905061130b816112e5565b92915050565b6000806040838503121561132857611327610e78565b5b6000611336858286016112fc565b9250506020611347858286016112fc565b9150509250929050565b61135a8161127a565b82525050565b60006020820190506113756000830184611351565b92915050565b611384816110ad565b82525050565b600060208201905061139f600083018461137b565b92915050565b6000602082840312156113bb576113ba610e78565b5b60006113c9848285016112fc565b91505092915050565b6113db8161108c565b82525050565b600082825260208201905092915050565b60006113fd826110c6565b61140781856113e1565b93506114178185602086016110e2565b61142081610e8c565b840191505092915050565b600060a08201905061144060008301886113d2565b61144d602083018761137b565b818103604083015261145f81866113f2565b9050818103606083015261147381856113f2565b9050611482608083018461137b565b9695505050505050565b7f596f75206d7573742073656e6420736f6d652065746865720000000000000000600082015250565b60006114c26018836113e1565b91506114cd8261148c565b602082019050919050565b600060208201905081810360008301526114f1816114b5565b9050919050565b7f4e487b7100000000000000000000000000000000000000000000000000000000600052602260045260246000fd5b6000600282049050600182168061153f57607f821691505b602082108103611552576115516114f8565b5b50919050565b60008190508160005260206000209050919050565b60006020601f8301049050919050565b600082821b905092915050565b6000600883026115ba7fffffffffffffffffffffffffffffffffffffffffffffffffffffffffffffffff8261157d565b6115c4868361157d565b95508019841693508086168417925050509392505050565b6000819050919050565b60006116016115fc6115f7846110ad565b6115dc565b6110ad565b9050919050565b6000819050919050565b61161b836115e6565b61162f61162782611608565b84845461158a565b825550505050565b600090565b611644611637565b61164f818484611612565b505050565b5b818110156116735761166860008261163c565b600181019050611655565b5050565b601f8211156116b85761168981611558565b6116928461156d565b810160208510156116a1578190505b6116b56116ad8561156d565b830182611654565b50505b505050565b600082821c905092915050565b60006116db600019846008026116bd565b1980831691505092915050565b60006116f483836116ca565b9150826002028217905092915050565b61170d826110c6565b67ffffffffffffffff81111561172657611725610e9d565b5b6117308254611527565b61173b828285611677565b600060209050601f83116001811461176e576000841561175c578287015190505b61176685826116e8565b8655506117ce565b601f19841661177c86611558565b60005b828110156117a45784890151825560018201915060208501945060208101905061177f565b868310156117c157848901516117bd601f8916826116ca565b8355505b6001600288020188555050505b505050505050565b60006080820190506117eb600083018761137b565b81810360208301526117fd81866113f2565b9050818103604083015261181181856113f2565b9050611820606083018461137b565b95945050505050565b7f4f6e6c7920746865206f776e65722063616e2077697468647261772066756e6460008201527f7300000000000000000000000000000000000000000000000000000000000000602082015250565b60006118856021836113e1565b915061189082611829565b604082019050919050565b600060208201905081810360008301526118b481611878565b9050919050565b7f5769746864726177616c206661696c6564000000000000000000000000000000600082015250565b60006118f16011836113e1565b91506118fc826118bb565b602082019050919050565b60006020820190508181036000830152611920816118e4565b9050919050565b7f596f75206d7573742073656e64206174206c6561737420302e3030332065746860008201527f657220666f722061206c6172676520636f666665650000000000000000000000602082015250565b60006119836035836113e1565b915061198e82611927565b604082019050919050565b600060208201905081810360008301526119b281611976565b9050919050565b7f4f6e6c7920746865206f776e65722063616e207570646174652074686520776960008201527f746864726177616c206164647265737300000000000000000000000000000000602082015250565b6000611a156030836113e1565b9150611a20826119b9565b604082019050919050565b60006020820190508181036000830152611a4481611a08565b9050919050565b7f496e76616c696420696e6465782072616e676500000000000000000000000000600082015250565b6000611a816013836113e1565b9150611a8c82611a4b565b602082019050919050565b60006020820190508181036000830152611ab081611a74565b9050919050565b7f496e646578206f7574206f6620626f756e647300000000000000000000000000600082015250565b6000611aed6013836113e1565b9150611af882611ab7565b602082019050919050565b60006020820190508181036000830152611b1c81611ae0565b9050919050565b7f4e487b7100000000000000000000000000000000000000000000000000000000600052601160045260246000fd5b6000611b5d826110ad565b9150611b68836110ad565b9250828203905081811115611b8057611b7f611b23565b5b92915050565b6000611b91826110ad565b9150611b9c836110ad565b9250828201905080821115611bb457611bb3611b23565b5b92915050565b7f4e487b7100000000000000000000000000000000000000000000000000000000600052603260045260246000fd5b6000611bf4826110ad565b91507fffffffffffffffffffffffffffffffffffffffffffffffffffffffffffffffff8203611c2657611c25611b23565b5b60018201905091905056fea264697066735822122017a9e8a4cb74cb9f31cb1defca3245d5e2b6313ce0dd7fa11b116da6b813cb6b64736f6c63430008180033",
  "linkReferences": {},
  "deployedLinkReferences": {}
}